{
  "address": "0xb4eD4228A632192B0388208be2e7c25a7E160B1b",
  "abi": [
    {
      "inputs": [
        {
          "internalType": "string",
          "name": "lowSvg",
          "type": "string"
        },
        {
          "internalType": "string",
          "name": "highSvg",
          "type": "string"
        },
        {
          "internalType": "address",
          "name": "PriceFeeAddress",
          "type": "address"
        }
      ],
      "stateMutability": "nonpayable",
      "type": "constructor"
    },
    {
      "anonymous": false,
      "inputs": [
        {
          "indexed": true,
          "internalType": "address",
          "name": "owner",
          "type": "address"
        },
        {
          "indexed": true,
          "internalType": "address",
          "name": "approved",
          "type": "address"
        },
        {
          "indexed": true,
          "internalType": "uint256",
          "name": "tokenId",
          "type": "uint256"
        }
      ],
      "name": "Approval",
      "type": "event"
    },
    {
      "anonymous": false,
      "inputs": [
        {
          "indexed": true,
          "internalType": "address",
          "name": "owner",
          "type": "address"
        },
        {
          "indexed": true,
          "internalType": "address",
          "name": "operator",
          "type": "address"
        },
        {
          "indexed": false,
          "internalType": "bool",
          "name": "approved",
          "type": "bool"
        }
      ],
      "name": "ApprovalForAll",
      "type": "event"
    },
    {
      "anonymous": false,
      "inputs": [
        {
          "indexed": true,
          "internalType": "uint256",
          "name": "tokenId",
          "type": "uint256"
        },
        {
          "indexed": false,
          "internalType": "int256",
          "name": "highValue",
          "type": "int256"
        }
      ],
      "name": "CreatedNFT",
      "type": "event"
    },
    {
      "anonymous": false,
      "inputs": [
        {
          "indexed": true,
          "internalType": "address",
          "name": "from",
          "type": "address"
        },
        {
          "indexed": true,
          "internalType": "address",
          "name": "to",
          "type": "address"
        },
        {
          "indexed": true,
          "internalType": "uint256",
          "name": "tokenId",
          "type": "uint256"
        }
      ],
      "name": "Transfer",
      "type": "event"
    },
    {
      "inputs": [
        {
          "internalType": "address",
          "name": "to",
          "type": "address"
        },
        {
          "internalType": "uint256",
          "name": "tokenId",
          "type": "uint256"
        }
      ],
      "name": "approve",
      "outputs": [],
      "stateMutability": "nonpayable",
      "type": "function"
    },
    {
      "inputs": [
        {
          "internalType": "address",
          "name": "owner",
          "type": "address"
        }
      ],
      "name": "balanceOf",
      "outputs": [
        {
          "internalType": "uint256",
          "name": "",
          "type": "uint256"
        }
      ],
      "stateMutability": "view",
      "type": "function"
    },
    {
      "inputs": [
        {
          "internalType": "uint256",
          "name": "tokenId",
          "type": "uint256"
        }
      ],
      "name": "getApproved",
      "outputs": [
        {
          "internalType": "address",
          "name": "",
          "type": "address"
        }
      ],
      "stateMutability": "view",
      "type": "function"
    },
    {
      "inputs": [],
      "name": "getHighSVGImageURI",
      "outputs": [
        {
          "internalType": "string",
          "name": "",
          "type": "string"
        }
      ],
      "stateMutability": "view",
      "type": "function"
    },
    {
      "inputs": [],
      "name": "getLowSVGImageURI",
      "outputs": [
        {
          "internalType": "string",
          "name": "",
          "type": "string"
        }
      ],
      "stateMutability": "view",
      "type": "function"
    },
    {
      "inputs": [],
      "name": "getPriceFeed",
      "outputs": [
        {
          "internalType": "address",
          "name": "",
          "type": "address"
        }
      ],
      "stateMutability": "view",
      "type": "function"
    },
    {
      "inputs": [],
      "name": "getTokenCounter",
      "outputs": [
        {
          "internalType": "uint256",
          "name": "",
          "type": "uint256"
        }
      ],
      "stateMutability": "view",
      "type": "function"
    },
    {
      "inputs": [
        {
          "internalType": "address",
          "name": "owner",
          "type": "address"
        },
        {
          "internalType": "address",
          "name": "operator",
          "type": "address"
        }
      ],
      "name": "isApprovedForAll",
      "outputs": [
        {
          "internalType": "bool",
          "name": "",
          "type": "bool"
        }
      ],
      "stateMutability": "view",
      "type": "function"
    },
    {
      "inputs": [
        {
          "internalType": "int256",
          "name": "highValue",
          "type": "int256"
        }
      ],
      "name": "mintNFT",
      "outputs": [],
      "stateMutability": "nonpayable",
      "type": "function"
    },
    {
      "inputs": [],
      "name": "name",
      "outputs": [
        {
          "internalType": "string",
          "name": "",
          "type": "string"
        }
      ],
      "stateMutability": "view",
      "type": "function"
    },
    {
      "inputs": [
        {
          "internalType": "uint256",
          "name": "tokenId",
          "type": "uint256"
        }
      ],
      "name": "ownerOf",
      "outputs": [
        {
          "internalType": "address",
          "name": "",
          "type": "address"
        }
      ],
      "stateMutability": "view",
      "type": "function"
    },
    {
      "inputs": [
        {
          "internalType": "uint256",
          "name": "",
          "type": "uint256"
        }
      ],
      "name": "s_tokenIdToHighValue",
      "outputs": [
        {
          "internalType": "int256",
          "name": "",
          "type": "int256"
        }
      ],
      "stateMutability": "view",
      "type": "function"
    },
    {
      "inputs": [
        {
          "internalType": "address",
          "name": "from",
          "type": "address"
        },
        {
          "internalType": "address",
          "name": "to",
          "type": "address"
        },
        {
          "internalType": "uint256",
          "name": "tokenId",
          "type": "uint256"
        }
      ],
      "name": "safeTransferFrom",
      "outputs": [],
      "stateMutability": "nonpayable",
      "type": "function"
    },
    {
      "inputs": [
        {
          "internalType": "address",
          "name": "from",
          "type": "address"
        },
        {
          "internalType": "address",
          "name": "to",
          "type": "address"
        },
        {
          "internalType": "uint256",
          "name": "tokenId",
          "type": "uint256"
        },
        {
          "internalType": "bytes",
          "name": "data",
          "type": "bytes"
        }
      ],
      "name": "safeTransferFrom",
      "outputs": [],
      "stateMutability": "nonpayable",
      "type": "function"
    },
    {
      "inputs": [
        {
          "internalType": "address",
          "name": "operator",
          "type": "address"
        },
        {
          "internalType": "bool",
          "name": "approved",
          "type": "bool"
        }
      ],
      "name": "setApprovalForAll",
      "outputs": [],
      "stateMutability": "nonpayable",
      "type": "function"
    },
    {
      "inputs": [
        {
          "internalType": "bytes4",
          "name": "interfaceId",
          "type": "bytes4"
        }
      ],
      "name": "supportsInterface",
      "outputs": [
        {
          "internalType": "bool",
          "name": "",
          "type": "bool"
        }
      ],
      "stateMutability": "view",
      "type": "function"
    },
    {
      "inputs": [
        {
          "internalType": "string",
          "name": "svg",
          "type": "string"
        }
      ],
      "name": "svgToImageURI",
      "outputs": [
        {
          "internalType": "string",
          "name": "",
          "type": "string"
        }
      ],
      "stateMutability": "pure",
      "type": "function"
    },
    {
      "inputs": [],
      "name": "symbol",
      "outputs": [
        {
          "internalType": "string",
          "name": "",
          "type": "string"
        }
      ],
      "stateMutability": "view",
      "type": "function"
    },
    {
      "inputs": [
        {
          "internalType": "uint256",
          "name": "tokenId",
          "type": "uint256"
        }
      ],
      "name": "tokenURI",
      "outputs": [
        {
          "internalType": "string",
          "name": "",
          "type": "string"
        }
      ],
      "stateMutability": "view",
      "type": "function"
    },
    {
      "inputs": [
        {
          "internalType": "address",
          "name": "from",
          "type": "address"
        },
        {
          "internalType": "address",
          "name": "to",
          "type": "address"
        },
        {
          "internalType": "uint256",
          "name": "tokenId",
          "type": "uint256"
        }
      ],
      "name": "transferFrom",
      "outputs": [],
      "stateMutability": "nonpayable",
      "type": "function"
    }
  ],
  "transactionHash": "0x70dd650e8f5e32785c4fc1d12a405ed3034eacbd9175a78a7dcd47df5b455c55",
  "args": [
    "<?xml version=\"1.0\" standalone=\"no\"?>\n<svg width=\"1024px\" height=\"1024px\" viewBox=\"0 0 1024 1024\" xmlns=\"http://www.w3.org/2000/svg\">\n  <path fill=\"#333\" d=\"M512 64C264.6 64 64 264.6 64 512s200.6 448 448 448 448-200.6 448-448S759.4 64 512 64zm0 820c-205.4 0-372-166.6-372-372s166.6-372 372-372 372 166.6 372 372-166.6 372-372 372z\"/>\n  <path fill=\"#E6E6E6\" d=\"M512 140c-205.4 0-372 166.6-372 372s166.6 372 372 372 372-166.6 372-372-166.6-372-372-372zM288 421a48.01 48.01 0 0 1 96 0 48.01 48.01 0 0 1-96 0zm376 272h-48.1c-4.2 0-7.8-3.2-8.1-7.4C604 636.1 562.5 597 512 597s-92.1 39.1-95.8 88.6c-.3 4.2-3.9 7.4-8.1 7.4H360a8 8 0 0 1-8-8.4c4.4-84.3 74.5-151.6 160-151.6s155.6 67.3 160 151.6a8 8 0 0 1-8 8.4zm24-224a48.01 48.01 0 0 1 0-96 48.01 48.01 0 0 1 0 96z\"/>\n  <path fill=\"#333\" d=\"M288 421a48 48 0 1 0 96 0 48 48 0 1 0-96 0zm224 112c-85.5 0-155.6 67.3-160 151.6a8 8 0 0 0 8 8.4h48.1c4.2 0 7.8-3.2 8.1-7.4 3.7-49.5 45.3-88.6 95.8-88.6s92 39.1 95.8 88.6c.3 4.2 3.9 7.4 8.1 7.4H664a8 8 0 0 0 8-8.4C667.6 600.3 597.5 533 512 533zm128-112a48 48 0 1 0 96 0 48 48 0 1 0-96 0z\"/>\n</svg>\n",
    "<svg viewBox=\"0 0 200 200\" width=\"400\"  height=\"400\" xmlns=\"http://www.w3.org/2000/svg\">\n  <circle cx=\"100\" cy=\"100\" fill=\"yellow\" r=\"78\" stroke=\"black\" stroke-width=\"3\"/>\n  <g class=\"eyes\">\n    <circle cx=\"61\" cy=\"82\" r=\"12\"/>\n    <circle cx=\"127\" cy=\"82\" r=\"12\"/>\n  </g>\n  <path d=\"m136.81 116.53c.69 26.17-64.11 42-81.52-.73\" style=\"fill:none; stroke: black; stroke-width: 3;\"/>\n</svg>",
    "0xD4a33860578De61DBAbDc8BFdb98FD742fA7028e"
  ],
  "numDeployments": 1,
  "solcInputHash": "31a6319452d8f447a98ed99dec519958",
  "bytecode": "0x60a06040523480156200001157600080fd5b506040516200398b3803806200398b8339818101604052810190620000379190620004ee565b6040518060400160405280600f81526020017f44796e616d696320535647204e465400000000000000000000000000000000008152506040518060400160405280600381526020017f44534e00000000000000000000000000000000000000000000000000000000008152508160009080519060200190620000bb929190620003a9565b508060019080519060200190620000d4929190620003a9565b5050506000600681905550620000f0826200017160201b60201c565b6008908051906020019062000107929190620003a9565b5062000119836200017160201b60201c565b6007908051906020019062000130929190620003a9565b508073ffffffffffffffffffffffffffffffffffffffff1660808173ffffffffffffffffffffffffffffffffffffffff1660601b8152505050505062000946565b60606000620001ac836040516020016200018c9190620005bf565b6040516020818303038152906040526200020f60201b62000f681760201c565b90506040518060400160405280601a81526020017f646174613a696d6167652f7376672b786d6c3b6261736536342c00000000000081525081604051602001620001f8929190620005d8565b604051602081830303815290604052915050919050565b60606000825114156200023457604051806020016040528060008152509050620003a4565b60006040518060600160405280604081526020016200394b604091399050600060036002855162000266919062000675565b620002729190620006d2565b60046200028091906200070a565b9050600060208262000293919062000675565b67ffffffffffffffff811115620002af57620002ae620008d8565b5b6040519080825280601f01601f191660200182016040528015620002e25781602001600182028036833780820191505090505b509050818152600183018586518101602084015b818310156200035f576003830192508251603f8160121c1685015160f81b8252600182019150603f81600c1c1685015160f81b8252600182019150603f8160061c1685015160f81b8252600182019150603f811685015160f81b825260018201915050620002f6565b6003895106600181146200037c57600281146200038d5762000398565b613d3d60f01b600283035262000398565b603d60f81b60018303525b50505050508093505050505b919050565b828054620003b790620007df565b90600052602060002090601f016020900481019282620003db576000855562000427565b82601f10620003f657805160ff191683800117855562000427565b8280016001018555821562000427579182015b828111156200042657825182559160200191906001019062000409565b5b5090506200043691906200043a565b5090565b5b80821115620004555760008160009055506001016200043b565b5090565b6000620004706200046a8462000629565b62000600565b9050828152602081018484840111156200048f576200048e6200090c565b5b6200049c848285620007a9565b509392505050565b600081519050620004b5816200092c565b92915050565b600082601f830112620004d357620004d262000907565b5b8151620004e584826020860162000459565b91505092915050565b6000806000606084860312156200050a576200050962000916565b5b600084015167ffffffffffffffff8111156200052b576200052a62000911565b5b6200053986828701620004bb565b935050602084015167ffffffffffffffff8111156200055d576200055c62000911565b5b6200056b86828701620004bb565b92505060406200057e86828701620004a4565b9150509250925092565b600062000595826200065f565b620005a181856200066a565b9350620005b3818560208601620007a9565b80840191505092915050565b6000620005cd828462000588565b915081905092915050565b6000620005e6828562000588565b9150620005f4828462000588565b91508190509392505050565b60006200060c6200061f565b90506200061a828262000815565b919050565b6000604051905090565b600067ffffffffffffffff821115620006475762000646620008d8565b5b62000652826200091b565b9050602081019050919050565b600081519050919050565b600081905092915050565b600062000682826200079f565b91506200068f836200079f565b9250827fffffffffffffffffffffffffffffffffffffffffffffffffffffffffffffffff03821115620006c757620006c66200084b565b5b828201905092915050565b6000620006df826200079f565b9150620006ec836200079f565b925082620006ff57620006fe6200087a565b5b828204905092915050565b600062000717826200079f565b915062000724836200079f565b9250817fffffffffffffffffffffffffffffffffffffffffffffffffffffffffffffffff048311821515161562000760576200075f6200084b565b5b828202905092915050565b600062000778826200077f565b9050919050565b600073ffffffffffffffffffffffffffffffffffffffff82169050919050565b6000819050919050565b60005b83811015620007c9578082015181840152602081019050620007ac565b83811115620007d9576000848401525b50505050565b60006002820490506001821680620007f857607f821691505b602082108114156200080f576200080e620008a9565b5b50919050565b62000820826200091b565b810181811067ffffffffffffffff82111715620008425762000841620008d8565b5b80604052505050565b7f4e487b7100000000000000000000000000000000000000000000000000000000600052601160045260246000fd5b7f4e487b7100000000000000000000000000000000000000000000000000000000600052601260045260246000fd5b7f4e487b7100000000000000000000000000000000000000000000000000000000600052602260045260246000fd5b7f4e487b7100000000000000000000000000000000000000000000000000000000600052604160045260246000fd5b600080fd5b600080fd5b600080fd5b600080fd5b6000601f19601f8301169050919050565b62000937816200076b565b81146200094357600080fd5b50565b60805160601c612fdf6200096c60003960008181610a880152610c010152612fdf6000f3fe608060405234801561001057600080fd5b506004361061012c5760003560e01c8063900da34e116100ad578063c87b56dd11610071578063c87b56dd14610343578063e2ed50cb14610373578063e425aded1461038f578063e4b8efec146103bf578063e985e9c5146103dd5761012c565b8063900da34e146102b157806395d89b41146102cf5780639e87a5cd146102ed578063a22cb4651461030b578063b88d4fde146103275761012c565b806330d871c6116100f457806330d871c6146101e757806342842e0e146102175780636352211e146102335780636e02007d1461026357806370a08231146102815761012c565b806301ffc9a71461013157806306fdde0314610161578063081812fc1461017f578063095ea7b3146101af57806323b872dd146101cb575b600080fd5b61014b60048036038101906101469190611f48565b61040d565b60405161015891906124c1565b60405180910390f35b6101696104ef565b60405161017691906124f7565b60405180910390f35b61019960048036038101906101949190612018565b610581565b6040516101a6919061245a565b60405180910390f35b6101c960048036038101906101c49190611f08565b6105c7565b005b6101e560048036038101906101e09190611df2565b6106df565b005b61020160048036038101906101fc9190611fcf565b61073f565b60405161020e91906124f7565b60405180910390f35b610231600480360381019061022c9190611df2565b6107cc565b005b61024d60048036038101906102489190612018565b6107ec565b60405161025a919061245a565b60405180910390f35b61026b61089e565b6040516102789190612699565b60405180910390f35b61029b60048036038101906102969190611d85565b6108a8565b6040516102a89190612699565b60405180910390f35b6102b9610960565b6040516102c691906124f7565b60405180910390f35b6102d76109f2565b6040516102e491906124f7565b60405180910390f35b6102f5610a84565b604051610302919061245a565b60405180910390f35b61032560048036038101906103209190611ec8565b610aac565b005b610341600480360381019061033c9190611e45565b610ac2565b005b61035d60048036038101906103589190612018565b610b24565b60405161036a91906124f7565b60405180910390f35b61038d60048036038101906103889190611fa2565b610dad565b005b6103a960048036038101906103a49190612018565b610e2a565b6040516103b691906124dc565b60405180910390f35b6103c7610e42565b6040516103d491906124f7565b60405180910390f35b6103f760048036038101906103f29190611db2565b610ed4565b60405161040491906124c1565b60405180910390f35b60007f80ac58cd000000000000000000000000000000000000000000000000000000007bffffffffffffffffffffffffffffffffffffffffffffffffffffffff1916827bffffffffffffffffffffffffffffffffffffffffffffffffffffffff191614806104d857507f5b5e139f000000000000000000000000000000000000000000000000000000007bffffffffffffffffffffffffffffffffffffffffffffffffffffffff1916827bffffffffffffffffffffffffffffffffffffffffffffffffffffffff1916145b806104e857506104e7826110ed565b5b9050919050565b6060600080546104fe90612969565b80601f016020809104026020016040519081016040528092919081815260200182805461052a90612969565b80156105775780601f1061054c57610100808354040283529160200191610577565b820191906000526020600020905b81548152906001019060200180831161055a57829003601f168201915b5050505050905090565b600061058c82611157565b6004600083815260200190815260200160002060009054906101000a900473ffffffffffffffffffffffffffffffffffffffff169050919050565b60006105d2826107ec565b90508073ffffffffffffffffffffffffffffffffffffffff168373ffffffffffffffffffffffffffffffffffffffff161415610643576040517f08c379a000000000000000000000000000000000000000000000000000000000815260040161063a90612659565b60405180910390fd5b8073ffffffffffffffffffffffffffffffffffffffff166106626111a2565b73ffffffffffffffffffffffffffffffffffffffff16148061069157506106908161068b6111a2565b610ed4565b5b6106d0576040517f08c379a00000000000000000000000000000000000000000000000000000000081526004016106c7906125d9565b60405180910390fd5b6106da83836111aa565b505050565b6106f06106ea6111a2565b82611263565b61072f576040517f08c379a000000000000000000000000000000000000000000000000000000000815260040161072690612679565b60405180910390fd5b61073a8383836112f8565b505050565b6060600061076b8360405160200161075791906123cf565b604051602081830303815290604052610f68565b90506040518060400160405280601a81526020017f646174613a696d6167652f7376672b786d6c3b6261736536342c000000000000815250816040516020016107b59291906123e6565b604051602081830303815290604052915050919050565b6107e783838360405180602001604052806000815250610ac2565b505050565b6000806002600084815260200190815260200160002060009054906101000a900473ffffffffffffffffffffffffffffffffffffffff169050600073ffffffffffffffffffffffffffffffffffffffff168173ffffffffffffffffffffffffffffffffffffffff161415610895576040517f08c379a000000000000000000000000000000000000000000000000000000000815260040161088c90612639565b60405180910390fd5b80915050919050565b6000600654905090565b60008073ffffffffffffffffffffffffffffffffffffffff168273ffffffffffffffffffffffffffffffffffffffff161415610919576040517f08c379a0000000000000000000000000000000000000000000000000000000008152600401610910906125b9565b60405180910390fd5b600360008373ffffffffffffffffffffffffffffffffffffffff1673ffffffffffffffffffffffffffffffffffffffff168152602001908152602001600020549050919050565b60606007805461096f90612969565b80601f016020809104026020016040519081016040528092919081815260200182805461099b90612969565b80156109e85780601f106109bd576101008083540402835291602001916109e8565b820191906000526020600020905b8154815290600101906020018083116109cb57829003601f168201915b5050505050905090565b606060018054610a0190612969565b80601f0160208091040260200160405190810160405280929190818152602001828054610a2d90612969565b8015610a7a5780601f10610a4f57610100808354040283529160200191610a7a565b820191906000526020600020905b815481529060010190602001808311610a5d57829003601f168201915b5050505050905090565b60007f0000000000000000000000000000000000000000000000000000000000000000905090565b610abe610ab76111a2565b838361155f565b5050565b610ad3610acd6111a2565b83611263565b610b12576040517f08c379a0000000000000000000000000000000000000000000000000000000008152600401610b0990612679565b60405180910390fd5b610b1e848484846116cc565b50505050565b6060610b2f82611728565b610b6e576040517f08c379a0000000000000000000000000000000000000000000000000000000008152600401610b6590612619565b60405180910390fd5b600060078054610b7d90612969565b80601f0160208091040260200160405190810160405280929190818152602001828054610ba990612969565b8015610bf65780601f10610bcb57610100808354040283529160200191610bf6565b820191906000526020600020905b815481529060010190602001808311610bd957829003601f168201915b5050505050905060007f000000000000000000000000000000000000000000000000000000000000000073ffffffffffffffffffffffffffffffffffffffff1663feaf968c6040518163ffffffff1660e01b815260040160a06040518083038186803b158015610c6557600080fd5b505afa158015610c79573d6000803e3d6000fd5b505050506040513d601f19601f82011682018060405250810190610c9d9190612045565b50505091505060096000858152602001908152602001600020548112610d4b5760088054610cca90612969565b80601f0160208091040260200160405190810160405280929190818152602001828054610cf690612969565b8015610d435780601f10610d1857610100808354040283529160200191610d43565b820191906000526020600020905b815481529060010190602001808311610d2657829003601f168201915b505050505091505b610d53611794565b610d84610d5e6104ef565b84604051602001610d7092919061240a565b604051602081830303815290604052610f68565b604051602001610d959291906123e6565b60405160208183030381529060405292505050919050565b8060096000600654815260200190815260200160002081905550610dd3336006546117d1565b600160066000828254610de6919061277e565b925050819055506006547f882d3b5a729a8bb95cf6c0083c99b42ecd9637123d4425bd7b768877fd8af8b082604051610e1f91906124dc565b60405180910390a250565b60096020528060005260406000206000915090505481565b606060088054610e5190612969565b80601f0160208091040260200160405190810160405280929190818152602001828054610e7d90612969565b8015610eca5780601f10610e9f57610100808354040283529160200191610eca565b820191906000526020600020905b815481529060010190602001808311610ead57829003601f168201915b5050505050905090565b6000600560008473ffffffffffffffffffffffffffffffffffffffff1673ffffffffffffffffffffffffffffffffffffffff16815260200190815260200160002060008373ffffffffffffffffffffffffffffffffffffffff1673ffffffffffffffffffffffffffffffffffffffff16815260200190815260200160002060009054906101000a900460ff16905092915050565b6060600082511415610f8b576040518060200160405280600081525090506110e8565b6000604051806060016040528060408152602001612f6a6040913990506000600360028551610fba919061277e565b610fc491906127d4565b6004610fd09190612805565b90506000602082610fe1919061277e565b67ffffffffffffffff811115610ffa57610ff9612a59565b5b6040519080825280601f01601f19166020018201604052801561102c5781602001600182028036833780820191505090505b509050818152600183018586518101602084015b818310156110a7576003830192508251603f8160121c1685015160f81b8252600182019150603f81600c1c1685015160f81b8252600182019150603f8160061c1685015160f81b8252600182019150603f811685015160f81b825260018201915050611040565b6003895106600181146110c157600281146110d1576110dc565b613d3d60f01b60028303526110dc565b603d60f81b60018303525b50505050508093505050505b919050565b60007f01ffc9a7000000000000000000000000000000000000000000000000000000007bffffffffffffffffffffffffffffffffffffffffffffffffffffffff1916827bffffffffffffffffffffffffffffffffffffffffffffffffffffffff1916149050919050565b61116081611728565b61119f576040517f08c379a000000000000000000000000000000000000000000000000000000000815260040161119690612639565b60405180910390fd5b50565b600033905090565b816004600083815260200190815260200160002060006101000a81548173ffffffffffffffffffffffffffffffffffffffff021916908373ffffffffffffffffffffffffffffffffffffffff160217905550808273ffffffffffffffffffffffffffffffffffffffff1661121d836107ec565b73ffffffffffffffffffffffffffffffffffffffff167f8c5be1e5ebec7d5bd14f71427d1e84f3dd0314c0f7b2291e5b200ac8c7c3b92560405160405180910390a45050565b60008061126f836107ec565b90508073ffffffffffffffffffffffffffffffffffffffff168473ffffffffffffffffffffffffffffffffffffffff1614806112b157506112b08185610ed4565b5b806112ef57508373ffffffffffffffffffffffffffffffffffffffff166112d784610581565b73ffffffffffffffffffffffffffffffffffffffff16145b91505092915050565b8273ffffffffffffffffffffffffffffffffffffffff16611318826107ec565b73ffffffffffffffffffffffffffffffffffffffff161461136e576040517f08c379a000000000000000000000000000000000000000000000000000000000815260040161136590612539565b60405180910390fd5b600073ffffffffffffffffffffffffffffffffffffffff168273ffffffffffffffffffffffffffffffffffffffff1614156113de576040517f08c379a00000000000000000000000000000000000000000000000000000000081526004016113d590612579565b60405180910390fd5b6113e98383836117ef565b6113f46000826111aa565b6001600360008573ffffffffffffffffffffffffffffffffffffffff1673ffffffffffffffffffffffffffffffffffffffff1681526020019081526020016000206000828254611444919061285f565b925050819055506001600360008473ffffffffffffffffffffffffffffffffffffffff1673ffffffffffffffffffffffffffffffffffffffff168152602001908152602001600020600082825461149b919061277e565b92505081905550816002600083815260200190815260200160002060006101000a81548173ffffffffffffffffffffffffffffffffffffffff021916908373ffffffffffffffffffffffffffffffffffffffff160217905550808273ffffffffffffffffffffffffffffffffffffffff168473ffffffffffffffffffffffffffffffffffffffff167fddf252ad1be2c89b69c2b068fc378daa952ba7f163c4a11628f55a4df523b3ef60405160405180910390a461155a8383836117f4565b505050565b8173ffffffffffffffffffffffffffffffffffffffff168373ffffffffffffffffffffffffffffffffffffffff1614156115ce576040517f08c379a00000000000000000000000000000000000000000000000000000000081526004016115c590612599565b60405180910390fd5b80600560008573ffffffffffffffffffffffffffffffffffffffff1673ffffffffffffffffffffffffffffffffffffffff16815260200190815260200160002060008473ffffffffffffffffffffffffffffffffffffffff1673ffffffffffffffffffffffffffffffffffffffff16815260200190815260200160002060006101000a81548160ff0219169083151502179055508173ffffffffffffffffffffffffffffffffffffffff168373ffffffffffffffffffffffffffffffffffffffff167f17307eab39ab6107e8899845ad3d59bd9653f200f220920489ca2b5937696c31836040516116bf91906124c1565b60405180910390a3505050565b6116d78484846112f8565b6116e3848484846117f9565b611722576040517f08c379a000000000000000000000000000000000000000000000000000000000815260040161171990612519565b60405180910390fd5b50505050565b60008073ffffffffffffffffffffffffffffffffffffffff166002600084815260200190815260200160002060009054906101000a900473ffffffffffffffffffffffffffffffffffffffff1673ffffffffffffffffffffffffffffffffffffffff1614159050919050565b60606040518060400160405280601d81526020017f646174613a6170706c69636174696f6e2f6a736f6e3b6261736536342c000000815250905090565b6117eb828260405180602001604052806000815250611990565b5050565b505050565b505050565b600061181a8473ffffffffffffffffffffffffffffffffffffffff166119eb565b15611983578373ffffffffffffffffffffffffffffffffffffffff1663150b7a026118436111a2565b8786866040518563ffffffff1660e01b81526004016118659493929190612475565b602060405180830381600087803b15801561187f57600080fd5b505af19250505080156118b057506040513d601f19601f820116820180604052508101906118ad9190611f75565b60015b611933573d80600081146118e0576040519150601f19603f3d011682016040523d82523d6000602084013e6118e5565b606091505b5060008151141561192b576040517f08c379a000000000000000000000000000000000000000000000000000000000815260040161192290612519565b60405180910390fd5b805181602001fd5b63150b7a0260e01b7bffffffffffffffffffffffffffffffffffffffffffffffffffffffff1916817bffffffffffffffffffffffffffffffffffffffffffffffffffffffff191614915050611988565b600190505b949350505050565b61199a8383611a0e565b6119a760008484846117f9565b6119e6576040517f08c379a00000000000000000000000000000000000000000000000000000000081526004016119dd90612519565b60405180910390fd5b505050565b6000808273ffffffffffffffffffffffffffffffffffffffff163b119050919050565b600073ffffffffffffffffffffffffffffffffffffffff168273ffffffffffffffffffffffffffffffffffffffff161415611a7e576040517f08c379a0000000000000000000000000000000000000000000000000000000008152600401611a75906125f9565b60405180910390fd5b611a8781611728565b15611ac7576040517f08c379a0000000000000000000000000000000000000000000000000000000008152600401611abe90612559565b60405180910390fd5b611ad3600083836117ef565b6001600360008473ffffffffffffffffffffffffffffffffffffffff1673ffffffffffffffffffffffffffffffffffffffff1681526020019081526020016000206000828254611b23919061277e565b92505081905550816002600083815260200190815260200160002060006101000a81548173ffffffffffffffffffffffffffffffffffffffff021916908373ffffffffffffffffffffffffffffffffffffffff160217905550808273ffffffffffffffffffffffffffffffffffffffff16600073ffffffffffffffffffffffffffffffffffffffff167fddf252ad1be2c89b69c2b068fc378daa952ba7f163c4a11628f55a4df523b3ef60405160405180910390a4611be4600083836117f4565b5050565b6000611bfb611bf6846126d9565b6126b4565b905082815260208101848484011115611c1757611c16612a8d565b5b611c22848285612927565b509392505050565b6000611c3d611c388461270a565b6126b4565b905082815260208101848484011115611c5957611c58612a8d565b5b611c64848285612927565b509392505050565b600081359050611c7b81612edf565b92915050565b600081359050611c9081612ef6565b92915050565b600081359050611ca581612f0d565b92915050565b600081519050611cba81612f0d565b92915050565b600082601f830112611cd557611cd4612a88565b5b8135611ce5848260208601611be8565b91505092915050565b600081359050611cfd81612f24565b92915050565b600081519050611d1281612f24565b92915050565b600082601f830112611d2d57611d2c612a88565b5b8135611d3d848260208601611c2a565b91505092915050565b600081359050611d5581612f3b565b92915050565b600081519050611d6a81612f3b565b92915050565b600081519050611d7f81612f52565b92915050565b600060208284031215611d9b57611d9a612a97565b5b6000611da984828501611c6c565b91505092915050565b60008060408385031215611dc957611dc8612a97565b5b6000611dd785828601611c6c565b9250506020611de885828601611c6c565b9150509250929050565b600080600060608486031215611e0b57611e0a612a97565b5b6000611e1986828701611c6c565b9350506020611e2a86828701611c6c565b9250506040611e3b86828701611d46565b9150509250925092565b60008060008060808587031215611e5f57611e5e612a97565b5b6000611e6d87828801611c6c565b9450506020611e7e87828801611c6c565b9350506040611e8f87828801611d46565b925050606085013567ffffffffffffffff811115611eb057611eaf612a92565b5b611ebc87828801611cc0565b91505092959194509250565b60008060408385031215611edf57611ede612a97565b5b6000611eed85828601611c6c565b9250506020611efe85828601611c81565b9150509250929050565b60008060408385031215611f1f57611f1e612a97565b5b6000611f2d85828601611c6c565b9250506020611f3e85828601611d46565b9150509250929050565b600060208284031215611f5e57611f5d612a97565b5b6000611f6c84828501611c96565b91505092915050565b600060208284031215611f8b57611f8a612a97565b5b6000611f9984828501611cab565b91505092915050565b600060208284031215611fb857611fb7612a97565b5b6000611fc684828501611cee565b91505092915050565b600060208284031215611fe557611fe4612a97565b5b600082013567ffffffffffffffff81111561200357612002612a92565b5b61200f84828501611d18565b91505092915050565b60006020828403121561202e5761202d612a97565b5b600061203c84828501611d46565b91505092915050565b600080600080600060a0868803121561206157612060612a97565b5b600061206f88828901611d70565b955050602061208088828901611d03565b945050604061209188828901611d5b565b93505060606120a288828901611d5b565b92505060806120b388828901611d70565b9150509295509295909350565b6120c981612893565b82525050565b6120d8816128a5565b82525050565b60006120e98261273b565b6120f38185612751565b9350612103818560208601612936565b61210c81612a9c565b840191505092915050565b612120816128dd565b82525050565b600061213182612746565b61213b8185612762565b935061214b818560208601612936565b61215481612a9c565b840191505092915050565b600061216a82612746565b6121748185612773565b9350612184818560208601612936565b80840191505092915050565b600061219d604483612773565b91506121a882612aad565b604482019050919050565b60006121c0600983612773565b91506121cb82612b22565b600982019050919050565b60006121e3603283612762565b91506121ee82612b4b565b604082019050919050565b6000612206602583612762565b915061221182612b9a565b604082019050919050565b6000612229601c83612762565b915061223482612be9565b602082019050919050565b600061224c602483612762565b915061225782612c12565b604082019050919050565b600061226f601983612762565b915061227a82612c61565b602082019050919050565b6000612292602983612762565b915061229d82612c8a565b604082019050919050565b60006122b5600283612773565b91506122c082612cd9565b600282019050919050565b60006122d8603e83612762565b91506122e382612d02565b604082019050919050565b60006122fb602083612762565b915061230682612d51565b602082019050919050565b600061231e604483612773565b915061232982612d7a565b604482019050919050565b6000612341602083612762565b915061234c82612def565b602082019050919050565b6000612364601883612762565b915061236f82612e18565b602082019050919050565b6000612387602183612762565b915061239282612e41565b604082019050919050565b60006123aa602e83612762565b91506123b582612e90565b604082019050919050565b6123c981612907565b82525050565b60006123db828461215f565b915081905092915050565b60006123f2828561215f565b91506123fe828461215f565b91508190509392505050565b6000612415826121b3565b9150612421828561215f565b915061242c82612311565b915061243782612190565b9150612443828461215f565b915061244e826122a8565b91508190509392505050565b600060208201905061246f60008301846120c0565b92915050565b600060808201905061248a60008301876120c0565b61249760208301866120c0565b6124a460408301856123c0565b81810360608301526124b681846120de565b905095945050505050565b60006020820190506124d660008301846120cf565b92915050565b60006020820190506124f16000830184612117565b92915050565b600060208201905081810360008301526125118184612126565b905092915050565b60006020820190508181036000830152612532816121d6565b9050919050565b60006020820190508181036000830152612552816121f9565b9050919050565b600060208201905081810360008301526125728161221c565b9050919050565b600060208201905081810360008301526125928161223f565b9050919050565b600060208201905081810360008301526125b281612262565b9050919050565b600060208201905081810360008301526125d281612285565b9050919050565b600060208201905081810360008301526125f2816122cb565b9050919050565b60006020820190508181036000830152612612816122ee565b9050919050565b6000602082019050818103600083015261263281612334565b9050919050565b6000602082019050818103600083015261265281612357565b9050919050565b600060208201905081810360008301526126728161237a565b9050919050565b600060208201905081810360008301526126928161239d565b9050919050565b60006020820190506126ae60008301846123c0565b92915050565b60006126be6126cf565b90506126ca828261299b565b919050565b6000604051905090565b600067ffffffffffffffff8211156126f4576126f3612a59565b5b6126fd82612a9c565b9050602081019050919050565b600067ffffffffffffffff82111561272557612724612a59565b5b61272e82612a9c565b9050602081019050919050565b600081519050919050565b600081519050919050565b600082825260208201905092915050565b600082825260208201905092915050565b600081905092915050565b600061278982612907565b915061279483612907565b9250827fffffffffffffffffffffffffffffffffffffffffffffffffffffffffffffffff038211156127c9576127c86129cc565b5b828201905092915050565b60006127df82612907565b91506127ea83612907565b9250826127fa576127f96129fb565b5b828204905092915050565b600061281082612907565b915061281b83612907565b9250817fffffffffffffffffffffffffffffffffffffffffffffffffffffffffffffffff0483118215151615612854576128536129cc565b5b828202905092915050565b600061286a82612907565b915061287583612907565b925082821015612888576128876129cc565b5b828203905092915050565b600061289e826128e7565b9050919050565b60008115159050919050565b60007fffffffff0000000000000000000000000000000000000000000000000000000082169050919050565b6000819050919050565b600073ffffffffffffffffffffffffffffffffffffffff82169050919050565b6000819050919050565b600069ffffffffffffffffffff82169050919050565b82818337600083830152505050565b60005b83811015612954578082015181840152602081019050612939565b83811115612963576000848401525b50505050565b6000600282049050600182168061298157607f821691505b6020821081141561299557612994612a2a565b5b50919050565b6129a482612a9c565b810181811067ffffffffffffffff821117156129c3576129c2612a59565b5b80604052505050565b7f4e487b7100000000000000000000000000000000000000000000000000000000600052601160045260246000fd5b7f4e487b7100000000000000000000000000000000000000000000000000000000600052601260045260246000fd5b7f4e487b7100000000000000000000000000000000000000000000000000000000600052602260045260246000fd5b7f4e487b7100000000000000000000000000000000000000000000000000000000600052604160045260246000fd5b600080fd5b600080fd5b600080fd5b600080fd5b6000601f19601f8301169050919050565b7f2261747472696275746573223a205b7b2274726169745f74797065223a20226360008201527f6f6f6c6e657373222c202276616c7565223a203130307d5d2c2022696d61676560208201527f223a202200000000000000000000000000000000000000000000000000000000604082015250565b7f7b226e616d65223a220000000000000000000000000000000000000000000000600082015250565b7f4552433732313a207472616e7366657220746f206e6f6e20455243373231526560008201527f63656976657220696d706c656d656e7465720000000000000000000000000000602082015250565b7f4552433732313a207472616e736665722066726f6d20696e636f72726563742060008201527f6f776e6572000000000000000000000000000000000000000000000000000000602082015250565b7f4552433732313a20746f6b656e20616c7265616479206d696e74656400000000600082015250565b7f4552433732313a207472616e7366657220746f20746865207a65726f2061646460008201527f7265737300000000000000000000000000000000000000000000000000000000602082015250565b7f4552433732313a20617070726f766520746f2063616c6c657200000000000000600082015250565b7f4552433732313a2061646472657373207a65726f206973206e6f74206120766160008201527f6c6964206f776e65720000000000000000000000000000000000000000000000602082015250565b7f227d000000000000000000000000000000000000000000000000000000000000600082015250565b7f4552433732313a20617070726f76652063616c6c6572206973206e6f7420746f60008201527f6b656e206f776e6572206e6f7220617070726f76656420666f7220616c6c0000602082015250565b7f4552433732313a206d696e7420746f20746865207a65726f2061646472657373600082015250565b7f222c20226465736372697074696f6e223a2022416e204e46542074686174206360008201527f68616e676573206261736564206f6e2074686520636861696e6c696e6b20466560208201527f6564222c00000000000000000000000000000000000000000000000000000000604082015250565b7f55524920517565727920666f72206e6f6e206578697374656e7420746f6b656e600082015250565b7f4552433732313a20696e76616c696420746f6b656e2049440000000000000000600082015250565b7f4552433732313a20617070726f76616c20746f2063757272656e74206f776e6560008201527f7200000000000000000000000000000000000000000000000000000000000000602082015250565b7f4552433732313a2063616c6c6572206973206e6f7420746f6b656e206f776e6560008201527f72206e6f7220617070726f766564000000000000000000000000000000000000602082015250565b612ee881612893565b8114612ef357600080fd5b50565b612eff816128a5565b8114612f0a57600080fd5b50565b612f16816128b1565b8114612f2157600080fd5b50565b612f2d816128dd565b8114612f3857600080fd5b50565b612f4481612907565b8114612f4f57600080fd5b50565b612f5b81612911565b8114612f6657600080fd5b5056fe4142434445464748494a4b4c4d4e4f505152535455565758595a6162636465666768696a6b6c6d6e6f707172737475767778797a303132333435363738392b2fa2646970667358221220815ac0e56d50f96b46fd63642219573ad55fc767753983784cb10c9ae5025b3c64736f6c634300080700334142434445464748494a4b4c4d4e4f505152535455565758595a6162636465666768696a6b6c6d6e6f707172737475767778797a303132333435363738392b2f",
  "devdoc": {
    "kind": "dev",
    "methods": {
      "approve(address,uint256)": {
        "details": "See {IERC721-approve}."
      },
      "balanceOf(address)": {
        "details": "See {IERC721-balanceOf}."
      },
      "getApproved(uint256)": {
        "details": "See {IERC721-getApproved}."
      },
      "isApprovedForAll(address,address)": {
        "details": "See {IERC721-isApprovedForAll}."
      },
      "name()": {
        "details": "See {IERC721Metadata-name}."
      },
      "ownerOf(uint256)": {
        "details": "See {IERC721-ownerOf}."
      },
      "safeTransferFrom(address,address,uint256)": {
        "details": "See {IERC721-safeTransferFrom}."
      },
      "safeTransferFrom(address,address,uint256,bytes)": {
        "details": "See {IERC721-safeTransferFrom}."
      },
      "setApprovalForAll(address,bool)": {
        "details": "See {IERC721-setApprovalForAll}."
      },
      "supportsInterface(bytes4)": {
        "details": "See {IERC165-supportsInterface}."
      },
      "symbol()": {
        "details": "See {IERC721Metadata-symbol}."
      },
      "tokenURI(uint256)": {
        "details": "See {IERC721Metadata-tokenURI}."
      },
      "transferFrom(address,address,uint256)": {
        "details": "See {IERC721-transferFrom}."
      }
    },
    "version": 1
  },
  "userdoc": {
    "kind": "user",
    "methods": {},
    "version": 1
  },
  "storageLayout": {
    "storage": [
      {
        "astId": 1296,
        "contract": "contracts/DynamicSvgNFT.sol:DynamicSvgNFT",
        "label": "_name",
        "offset": 0,
        "slot": "0",
        "type": "t_string_storage"
      },
      {
        "astId": 1298,
        "contract": "contracts/DynamicSvgNFT.sol:DynamicSvgNFT",
        "label": "_symbol",
        "offset": 0,
        "slot": "1",
        "type": "t_string_storage"
      },
      {
        "astId": 1302,
        "contract": "contracts/DynamicSvgNFT.sol:DynamicSvgNFT",
        "label": "_owners",
        "offset": 0,
        "slot": "2",
        "type": "t_mapping(t_uint256,t_address)"
      },
      {
        "astId": 1306,
        "contract": "contracts/DynamicSvgNFT.sol:DynamicSvgNFT",
        "label": "_balances",
        "offset": 0,
        "slot": "3",
        "type": "t_mapping(t_address,t_uint256)"
      },
      {
        "astId": 1310,
        "contract": "contracts/DynamicSvgNFT.sol:DynamicSvgNFT",
        "label": "_tokenApprovals",
        "offset": 0,
        "slot": "4",
        "type": "t_mapping(t_uint256,t_address)"
      },
      {
        "astId": 1316,
        "contract": "contracts/DynamicSvgNFT.sol:DynamicSvgNFT",
        "label": "_operatorApprovals",
        "offset": 0,
        "slot": "5",
        "type": "t_mapping(t_address,t_mapping(t_address,t_bool))"
      },
      {
        "astId": 3129,
        "contract": "contracts/DynamicSvgNFT.sol:DynamicSvgNFT",
        "label": "s_tokenCounter",
        "offset": 0,
        "slot": "6",
        "type": "t_uint256"
      },
      {
        "astId": 3131,
        "contract": "contracts/DynamicSvgNFT.sol:DynamicSvgNFT",
        "label": "i_lowImageURI",
        "offset": 0,
        "slot": "7",
        "type": "t_string_storage"
      },
      {
        "astId": 3133,
        "contract": "contracts/DynamicSvgNFT.sol:DynamicSvgNFT",
        "label": "i_highImageURI",
        "offset": 0,
        "slot": "8",
        "type": "t_string_storage"
      },
      {
        "astId": 3143,
        "contract": "contracts/DynamicSvgNFT.sol:DynamicSvgNFT",
        "label": "s_tokenIdToHighValue",
        "offset": 0,
        "slot": "9",
        "type": "t_mapping(t_uint256,t_int256)"
      }
    ],
    "types": {
      "t_address": {
        "encoding": "inplace",
        "label": "address",
        "numberOfBytes": "20"
      },
      "t_bool": {
        "encoding": "inplace",
        "label": "bool",
        "numberOfBytes": "1"
      },
      "t_int256": {
        "encoding": "inplace",
        "label": "int256",
        "numberOfBytes": "32"
      },
      "t_mapping(t_address,t_bool)": {
        "encoding": "mapping",
        "key": "t_address",
        "label": "mapping(address => bool)",
        "numberOfBytes": "32",
        "value": "t_bool"
      },
      "t_mapping(t_address,t_mapping(t_address,t_bool))": {
        "encoding": "mapping",
        "key": "t_address",
        "label": "mapping(address => mapping(address => bool))",
        "numberOfBytes": "32",
        "value": "t_mapping(t_address,t_bool)"
      },
      "t_mapping(t_address,t_uint256)": {
        "encoding": "mapping",
        "key": "t_address",
        "label": "mapping(address => uint256)",
        "numberOfBytes": "32",
        "value": "t_uint256"
      },
      "t_mapping(t_uint256,t_address)": {
        "encoding": "mapping",
        "key": "t_uint256",
        "label": "mapping(uint256 => address)",
        "numberOfBytes": "32",
        "value": "t_address"
      },
      "t_mapping(t_uint256,t_int256)": {
        "encoding": "mapping",
        "key": "t_uint256",
        "label": "mapping(uint256 => int256)",
        "numberOfBytes": "32",
        "value": "t_int256"
      },
      "t_string_storage": {
        "encoding": "bytes",
        "label": "string",
        "numberOfBytes": "32"
      },
      "t_uint256": {
        "encoding": "inplace",
        "label": "uint256",
        "numberOfBytes": "32"
      }
    }
  }
}