{
  "address": "0xF9D7E2232E3FF27af1005318be0444d446764085",
  "abi": [
    {
      "inputs": [
        {
          "internalType": "address",
          "name": "vrfCoordinatorV2",
          "type": "address"
        },
        {
          "internalType": "uint64",
          "name": "subscriptionId",
          "type": "uint64"
        },
        {
          "internalType": "bytes32",
          "name": "gasLane",
          "type": "bytes32"
        },
        {
          "internalType": "uint32",
          "name": "callbackGasLimit",
          "type": "uint32"
        },
        {
          "internalType": "string[3]",
          "name": "dogTokenUris",
          "type": "string[3]"
        },
        {
          "internalType": "uint256",
          "name": "mintFee",
          "type": "uint256"
        }
      ],
      "stateMutability": "nonpayable",
      "type": "constructor"
    },
    {
      "inputs": [
        {
          "internalType": "address",
          "name": "have",
          "type": "address"
        },
        {
          "internalType": "address",
          "name": "want",
          "type": "address"
        }
      ],
      "name": "OnlyCoordinatorCanFulfill",
      "type": "error"
    },
    {
      "inputs": [],
      "name": "RIN__NeedMoreETHSent",
      "type": "error"
    },
    {
      "inputs": [],
      "name": "RIN__RangeOutOfBounds",
      "type": "error"
    },
    {
      "inputs": [],
      "name": "RIN__TransferFailed",
      "type": "error"
    },
    {
      "anonymous": false,
      "inputs": [
        {
          "indexed": true,
          "internalType": "address",
          "name": "owner",
          "type": "address"
        },
        {
          "indexed": true,
          "internalType": "address",
          "name": "approved",
          "type": "address"
        },
        {
          "indexed": true,
          "internalType": "uint256",
          "name": "tokenId",
          "type": "uint256"
        }
      ],
      "name": "Approval",
      "type": "event"
    },
    {
      "anonymous": false,
      "inputs": [
        {
          "indexed": true,
          "internalType": "address",
          "name": "owner",
          "type": "address"
        },
        {
          "indexed": true,
          "internalType": "address",
          "name": "operator",
          "type": "address"
        },
        {
          "indexed": false,
          "internalType": "bool",
          "name": "approved",
          "type": "bool"
        }
      ],
      "name": "ApprovalForAll",
      "type": "event"
    },
    {
      "anonymous": false,
      "inputs": [
        {
          "indexed": false,
          "internalType": "enum RandomIpfsNFT.Breed",
          "name": "dogBreed",
          "type": "uint8"
        },
        {
          "indexed": false,
          "internalType": "address",
          "name": "minter",
          "type": "address"
        }
      ],
      "name": "NFTMinted",
      "type": "event"
    },
    {
      "anonymous": false,
      "inputs": [
        {
          "indexed": true,
          "internalType": "uint256",
          "name": "requestId",
          "type": "uint256"
        },
        {
          "indexed": false,
          "internalType": "address",
          "name": "requester",
          "type": "address"
        }
      ],
      "name": "NFTRequested",
      "type": "event"
    },
    {
      "anonymous": false,
      "inputs": [
        {
          "indexed": true,
          "internalType": "address",
          "name": "previousOwner",
          "type": "address"
        },
        {
          "indexed": true,
          "internalType": "address",
          "name": "newOwner",
          "type": "address"
        }
      ],
      "name": "OwnershipTransferred",
      "type": "event"
    },
    {
      "anonymous": false,
      "inputs": [
        {
          "indexed": true,
          "internalType": "address",
          "name": "from",
          "type": "address"
        },
        {
          "indexed": true,
          "internalType": "address",
          "name": "to",
          "type": "address"
        },
        {
          "indexed": true,
          "internalType": "uint256",
          "name": "tokenId",
          "type": "uint256"
        }
      ],
      "name": "Transfer",
      "type": "event"
    },
    {
      "inputs": [
        {
          "internalType": "address",
          "name": "to",
          "type": "address"
        },
        {
          "internalType": "uint256",
          "name": "tokenId",
          "type": "uint256"
        }
      ],
      "name": "approve",
      "outputs": [],
      "stateMutability": "nonpayable",
      "type": "function"
    },
    {
      "inputs": [
        {
          "internalType": "address",
          "name": "owner",
          "type": "address"
        }
      ],
      "name": "balanceOf",
      "outputs": [
        {
          "internalType": "uint256",
          "name": "",
          "type": "uint256"
        }
      ],
      "stateMutability": "view",
      "type": "function"
    },
    {
      "inputs": [
        {
          "internalType": "uint256",
          "name": "tokenId",
          "type": "uint256"
        }
      ],
      "name": "getApproved",
      "outputs": [
        {
          "internalType": "address",
          "name": "",
          "type": "address"
        }
      ],
      "stateMutability": "view",
      "type": "function"
    },
    {
      "inputs": [
        {
          "internalType": "uint256",
          "name": "moddedRNG",
          "type": "uint256"
        }
      ],
      "name": "getBreedFromModdedRNG",
      "outputs": [
        {
          "internalType": "enum RandomIpfsNFT.Breed",
          "name": "",
          "type": "uint8"
        }
      ],
      "stateMutability": "pure",
      "type": "function"
    },
    {
      "inputs": [],
      "name": "getChanceArray",
      "outputs": [
        {
          "internalType": "uint256[3]",
          "name": "",
          "type": "uint256[3]"
        }
      ],
      "stateMutability": "pure",
      "type": "function"
    },
    {
      "inputs": [
        {
          "internalType": "uint256",
          "name": "index",
          "type": "uint256"
        }
      ],
      "name": "getDogTokenUris",
      "outputs": [
        {
          "internalType": "string",
          "name": "",
          "type": "string"
        }
      ],
      "stateMutability": "view",
      "type": "function"
    },
    {
      "inputs": [],
      "name": "getMintFee",
      "outputs": [
        {
          "internalType": "uint256",
          "name": "",
          "type": "uint256"
        }
      ],
      "stateMutability": "view",
      "type": "function"
    },
    {
      "inputs": [],
      "name": "getTokenCounter",
      "outputs": [
        {
          "internalType": "uint256",
          "name": "",
          "type": "uint256"
        }
      ],
      "stateMutability": "view",
      "type": "function"
    },
    {
      "inputs": [
        {
          "internalType": "address",
          "name": "owner",
          "type": "address"
        },
        {
          "internalType": "address",
          "name": "operator",
          "type": "address"
        }
      ],
      "name": "isApprovedForAll",
      "outputs": [
        {
          "internalType": "bool",
          "name": "",
          "type": "bool"
        }
      ],
      "stateMutability": "view",
      "type": "function"
    },
    {
      "inputs": [],
      "name": "name",
      "outputs": [
        {
          "internalType": "string",
          "name": "",
          "type": "string"
        }
      ],
      "stateMutability": "view",
      "type": "function"
    },
    {
      "inputs": [],
      "name": "owner",
      "outputs": [
        {
          "internalType": "address",
          "name": "",
          "type": "address"
        }
      ],
      "stateMutability": "view",
      "type": "function"
    },
    {
      "inputs": [
        {
          "internalType": "uint256",
          "name": "tokenId",
          "type": "uint256"
        }
      ],
      "name": "ownerOf",
      "outputs": [
        {
          "internalType": "address",
          "name": "",
          "type": "address"
        }
      ],
      "stateMutability": "view",
      "type": "function"
    },
    {
      "inputs": [
        {
          "internalType": "uint256",
          "name": "requestId",
          "type": "uint256"
        },
        {
          "internalType": "uint256[]",
          "name": "randomWords",
          "type": "uint256[]"
        }
      ],
      "name": "rawFulfillRandomWords",
      "outputs": [],
      "stateMutability": "nonpayable",
      "type": "function"
    },
    {
      "inputs": [],
      "name": "renounceOwnership",
      "outputs": [],
      "stateMutability": "nonpayable",
      "type": "function"
    },
    {
      "inputs": [],
      "name": "requestNFT",
      "outputs": [
        {
          "internalType": "uint256",
          "name": "requestId",
          "type": "uint256"
        }
      ],
      "stateMutability": "payable",
      "type": "function"
    },
    {
      "inputs": [
        {
          "internalType": "address",
          "name": "from",
          "type": "address"
        },
        {
          "internalType": "address",
          "name": "to",
          "type": "address"
        },
        {
          "internalType": "uint256",
          "name": "tokenId",
          "type": "uint256"
        }
      ],
      "name": "safeTransferFrom",
      "outputs": [],
      "stateMutability": "nonpayable",
      "type": "function"
    },
    {
      "inputs": [
        {
          "internalType": "address",
          "name": "from",
          "type": "address"
        },
        {
          "internalType": "address",
          "name": "to",
          "type": "address"
        },
        {
          "internalType": "uint256",
          "name": "tokenId",
          "type": "uint256"
        },
        {
          "internalType": "bytes",
          "name": "data",
          "type": "bytes"
        }
      ],
      "name": "safeTransferFrom",
      "outputs": [],
      "stateMutability": "nonpayable",
      "type": "function"
    },
    {
      "inputs": [
        {
          "internalType": "address",
          "name": "operator",
          "type": "address"
        },
        {
          "internalType": "bool",
          "name": "approved",
          "type": "bool"
        }
      ],
      "name": "setApprovalForAll",
      "outputs": [],
      "stateMutability": "nonpayable",
      "type": "function"
    },
    {
      "inputs": [
        {
          "internalType": "bytes4",
          "name": "interfaceId",
          "type": "bytes4"
        }
      ],
      "name": "supportsInterface",
      "outputs": [
        {
          "internalType": "bool",
          "name": "",
          "type": "bool"
        }
      ],
      "stateMutability": "view",
      "type": "function"
    },
    {
      "inputs": [],
      "name": "symbol",
      "outputs": [
        {
          "internalType": "string",
          "name": "",
          "type": "string"
        }
      ],
      "stateMutability": "view",
      "type": "function"
    },
    {
      "inputs": [
        {
          "internalType": "uint256",
          "name": "tokenId",
          "type": "uint256"
        }
      ],
      "name": "tokenURI",
      "outputs": [
        {
          "internalType": "string",
          "name": "",
          "type": "string"
        }
      ],
      "stateMutability": "view",
      "type": "function"
    },
    {
      "inputs": [
        {
          "internalType": "address",
          "name": "from",
          "type": "address"
        },
        {
          "internalType": "address",
          "name": "to",
          "type": "address"
        },
        {
          "internalType": "uint256",
          "name": "tokenId",
          "type": "uint256"
        }
      ],
      "name": "transferFrom",
      "outputs": [],
      "stateMutability": "nonpayable",
      "type": "function"
    },
    {
      "inputs": [
        {
          "internalType": "address",
          "name": "newOwner",
          "type": "address"
        }
      ],
      "name": "transferOwnership",
      "outputs": [],
      "stateMutability": "nonpayable",
      "type": "function"
    },
    {
      "inputs": [],
      "name": "withdraw",
      "outputs": [],
      "stateMutability": "nonpayable",
      "type": "function"
    }
  ],
  "transactionHash": "0x0910d9a60edeeff7da50e1e0486b5f632160335e0163d513a9a7ea30994ae9d5",
  "args": [
    "0xA39434A63A52E749F02807ae27335515BA4b07F7",
    "3162",
    "0x79d3d8832d904592c0bf9818b621522c988bb8b0c05cdc3b15aea1b6e8db0c15",
    "500000",
    [
      "ipfs://QmbfbVh7x3qYnRvLvKrGuaE1wv23PRTHMihet2nN7Lkyxy",
      "ipfs://QmRLAHuaSpPgW8qbV7cMFoUeWdNvT8N4uPmZ1QguAU4zNP",
      "ipfs://QmPULjS9vpc8iDVjy6BvC2fFhoMBWUEC3GUCH21EjeZW8f"
    ],
    "10000000000000000"
  ],
  "numDeployments": 1,
  "solcInputHash": "71d6d5b77c27186585749d280cb50070",
  "bytecode": "0x6101206040523480156200001257600080fd5b50604051620041f7380380620041f78339818101604052810190620000389190620005d5565b6040518060400160405280600f81526020017f52616e646f6d2049504653204e465400000000000000000000000000000000008152506040518060400160405280600381526020017f52494e0000000000000000000000000000000000000000000000000000000000815250878073ffffffffffffffffffffffffffffffffffffffff1660808173ffffffffffffffffffffffffffffffffffffffff1660601b81525050508160009080519060200190620000f59291906200029c565b5080600190805190602001906200010e9291906200029c565b5050506200013162000125620001ce60201b60201c565b620001d660201b60201c565b8573ffffffffffffffffffffffffffffffffffffffff1660a08173ffffffffffffffffffffffffffffffffffffffff1660601b815250508467ffffffffffffffff1660c08167ffffffffffffffff1660c01b815250508360e081815250508263ffffffff166101008163ffffffff1660e01b8152505081600a906003620001ba9291906200032d565b5080600b8190555050505050505062000930565b600033905090565b6000600760009054906101000a900473ffffffffffffffffffffffffffffffffffffffff16905081600760006101000a81548173ffffffffffffffffffffffffffffffffffffffff021916908373ffffffffffffffffffffffffffffffffffffffff1602179055508173ffffffffffffffffffffffffffffffffffffffff168173ffffffffffffffffffffffffffffffffffffffff167f8be0079c531659141344cd1fd0a4f28419497f9722a3daafe3b4186f6b6457e060405160405180910390a35050565b828054620002aa90620007ba565b90600052602060002090601f016020900481019282620002ce57600085556200031a565b82601f10620002e957805160ff19168380011785556200031a565b828001600101855582156200031a579182015b8281111562000319578251825591602001919060010190620002fc565b5b50905062000329919062000394565b5090565b82805482825590600052602060002090810192821562000381579160200282015b82811115620003805782518290805190602001906200036f9291906200029c565b50916020019190600101906200034e565b5b509050620003909190620003b3565b5090565b5b80821115620003af57600081600090555060010162000395565b5090565b5b80821115620003d75760008181620003cd9190620003db565b50600101620003b4565b5090565b508054620003e990620007ba565b6000825580601f10620003fd57506200041e565b601f0160209004906000526020600020908101906200041d919062000394565b5b50565b6000620004386200043284620006b9565b62000690565b9050808285602086028201111562000455576200045462000889565b5b60005b85811015620004aa57815167ffffffffffffffff8111156200047f576200047e62000884565b5b8086016200048e89826200055d565b8552602085019450602084019350505060018101905062000458565b5050509392505050565b6000620004cb620004c584620006e2565b62000690565b905082815260208101848484011115620004ea57620004e96200088e565b5b620004f784828562000784565b509392505050565b6000815190506200051081620008ae565b92915050565b600082601f8301126200052e576200052d62000884565b5b60036200053d84828562000421565b91505092915050565b6000815190506200055781620008c8565b92915050565b600082601f83011262000575576200057462000884565b5b815162000587848260208601620004b4565b91505092915050565b600081519050620005a181620008e2565b92915050565b600081519050620005b881620008fc565b92915050565b600081519050620005cf8162000916565b92915050565b60008060008060008060c08789031215620005f557620005f462000898565b5b60006200060589828a01620004ff565b96505060206200061889828a01620005be565b95505060406200062b89828a0162000546565b94505060606200063e89828a01620005a7565b935050608087015167ffffffffffffffff81111562000662576200066162000893565b5b6200067089828a0162000516565b92505060a06200068389828a0162000590565b9150509295509295509295565b60006200069c620006af565b9050620006aa8282620007f0565b919050565b6000604051905090565b600067ffffffffffffffff821115620006d757620006d662000855565b5b602082029050919050565b600067ffffffffffffffff8211156200070057620006ff62000855565b5b6200070b826200089d565b9050602081019050919050565b6000620007258262000736565b9050919050565b6000819050919050565b600073ffffffffffffffffffffffffffffffffffffffff82169050919050565b6000819050919050565b600063ffffffff82169050919050565b600067ffffffffffffffff82169050919050565b60005b83811015620007a457808201518184015260208101905062000787565b83811115620007b4576000848401525b50505050565b60006002820490506001821680620007d357607f821691505b60208210811415620007ea57620007e962000826565b5b50919050565b620007fb826200089d565b810181811067ffffffffffffffff821117156200081d576200081c62000855565b5b80604052505050565b7f4e487b7100000000000000000000000000000000000000000000000000000000600052602260045260246000fd5b7f4e487b7100000000000000000000000000000000000000000000000000000000600052604160045260246000fd5b600080fd5b600080fd5b600080fd5b600080fd5b600080fd5b6000601f19601f8301169050919050565b620008b98162000718565b8114620008c557600080fd5b50565b620008d3816200072c565b8114620008df57600080fd5b50565b620008ed8162000756565b8114620008f957600080fd5b50565b620009078162000760565b81146200091357600080fd5b50565b620009218162000770565b81146200092d57600080fd5b50565b60805160601c60a05160601c60c05160c01c60e0516101005160e01c61386f620009886000396000610e6f01526000610e2b01526000610e4c01526000610def01526000818161087901526108cd015261386f6000f3fe60806040526004361061014b5760003560e01c80636e02007d116100b657806395d89b411161006f57806395d89b4114610485578063a22cb465146104b0578063b88d4fde146104d9578063c87b56dd14610502578063e985e9c51461053f578063f2fde38b1461057c5761014b565b80636e02007d1461039257806370a08231146103bd578063715018a6146103fa5780637a5caab3146104115780637abd25d11461043c5780638da5cb5b1461045a5761014b565b80633af25975116101085780633af25975146102705780633b82170c146102ad5780633ccfd60b146102ea57806342842e0e146103015780635dacf5f41461032a5780636352211e146103555761014b565b806301ffc9a71461015057806306fdde031461018d578063081812fc146101b8578063095ea7b3146101f55780631fe543e31461021e57806323b872dd14610247575b600080fd5b34801561015c57600080fd5b50610177600480360381019061017291906126f9565b6105a5565b6040516101849190612c93565b60405180910390f35b34801561019957600080fd5b506101a2610687565b6040516101af9190612d45565b60405180910390f35b3480156101c457600080fd5b506101df60048036038101906101da9190612753565b610719565b6040516101ec9190612be8565b60405180910390f35b34801561020157600080fd5b5061021c600480360381019061021791906126b9565b61075f565b005b34801561022a57600080fd5b50610245600480360381019061024091906127ad565b610877565b005b34801561025357600080fd5b5061026e600480360381019061026991906125a3565b610937565b005b34801561027c57600080fd5b5061029760048036038101906102929190612753565b610997565b6040516102a49190612d45565b60405180910390f35b3480156102b957600080fd5b506102d460048036038101906102cf9190612753565b610a47565b6040516102e19190612d01565b60405180910390f35b3480156102f657600080fd5b506102ff610b1e565b005b34801561030d57600080fd5b50610328600480360381019061032391906125a3565b610bd2565b005b34801561033657600080fd5b5061033f610bf2565b60405161034c9190612c78565b60405180910390f35b34801561036157600080fd5b5061037c60048036038101906103779190612753565b610c1d565b6040516103899190612be8565b60405180910390f35b34801561039e57600080fd5b506103a7610ccf565b6040516103b49190612f27565b60405180910390f35b3480156103c957600080fd5b506103e460048036038101906103df9190612536565b610cd9565b6040516103f19190612f27565b60405180910390f35b34801561040657600080fd5b5061040f610d91565b005b34801561041d57600080fd5b50610426610da5565b6040516104339190612f27565b60405180910390f35b610444610daf565b6040516104519190612f27565b60405180910390f35b34801561046657600080fd5b5061046f610f91565b60405161047c9190612be8565b60405180910390f35b34801561049157600080fd5b5061049a610fbb565b6040516104a79190612d45565b60405180910390f35b3480156104bc57600080fd5b506104d760048036038101906104d29190612679565b61104d565b005b3480156104e557600080fd5b5061050060048036038101906104fb91906125f6565b611063565b005b34801561050e57600080fd5b5061052960048036038101906105249190612753565b6110c5565b6040516105369190612d45565b60405180910390f35b34801561054b57600080fd5b5061056660048036038101906105619190612563565b6111d8565b6040516105739190612c93565b60405180910390f35b34801561058857600080fd5b506105a3600480360381019061059e9190612536565b61126c565b005b60007f80ac58cd000000000000000000000000000000000000000000000000000000007bffffffffffffffffffffffffffffffffffffffffffffffffffffffff1916827bffffffffffffffffffffffffffffffffffffffffffffffffffffffff1916148061067057507f5b5e139f000000000000000000000000000000000000000000000000000000007bffffffffffffffffffffffffffffffffffffffffffffffffffffffff1916827bffffffffffffffffffffffffffffffffffffffffffffffffffffffff1916145b80610680575061067f826112f0565b5b9050919050565b60606000805461069690613211565b80601f01602080910402602001604051908101604052809291908181526020018280546106c290613211565b801561070f5780601f106106e45761010080835404028352916020019161070f565b820191906000526020600020905b8154815290600101906020018083116106f257829003601f168201915b5050505050905090565b60006107248261135a565b6004600083815260200190815260200160002060009054906101000a900473ffffffffffffffffffffffffffffffffffffffff169050919050565b600061076a82610c1d565b90508073ffffffffffffffffffffffffffffffffffffffff168373ffffffffffffffffffffffffffffffffffffffff1614156107db576040517f08c379a00000000000000000000000000000000000000000000000000000000081526004016107d290612ee7565b60405180910390fd5b8073ffffffffffffffffffffffffffffffffffffffff166107fa6113a5565b73ffffffffffffffffffffffffffffffffffffffff1614806108295750610828816108236113a5565b6111d8565b5b610868576040517f08c379a000000000000000000000000000000000000000000000000000000000815260040161085f90612e67565b60405180910390fd5b61087283836113ad565b505050565b7f000000000000000000000000000000000000000000000000000000000000000073ffffffffffffffffffffffffffffffffffffffff163373ffffffffffffffffffffffffffffffffffffffff161461092957337f00000000000000000000000000000000000000000000000000000000000000006040517f1cf993f4000000000000000000000000000000000000000000000000000000008152600401610920929190612c03565b60405180910390fd5b6109338282611466565b5050565b6109486109426113a5565b82611605565b610987576040517f08c379a000000000000000000000000000000000000000000000000000000000815260040161097e90612f07565b60405180910390fd5b61099283838361169a565b505050565b6060600a82815481106109ad576109ac6133aa565b5b9060005260206000200180546109c290613211565b80601f01602080910402602001604051908101604052809291908181526020018280546109ee90613211565b8015610a3b5780601f10610a1057610100808354040283529160200191610a3b565b820191906000526020600020905b815481529060010190602001808311610a1e57829003601f168201915b50505050509050919050565b600080600090506000610a58610bf2565b905060005b6003811015610ae657828510158015610a8c5750818160038110610a8457610a836133aa565b5b602002015185105b15610aae57806002811115610aa457610aa361334c565b5b9350505050610b19565b818160038110610ac157610ac06133aa565b5b602002015183610ad1919061303f565b92508080610ade90613274565b915050610a5d565b506040517f23f8907f00000000000000000000000000000000000000000000000000000000815260040160405180910390fd5b919050565b610b26611901565b600047905060003373ffffffffffffffffffffffffffffffffffffffff1682604051610b5190612bd3565b60006040518083038185875af1925050503d8060008114610b8e576040519150601f19603f3d011682016040523d82523d6000602084013e610b93565b606091505b5050905080610bce576040517f0c54bed300000000000000000000000000000000000000000000000000000000815260040160405180910390fd5b5050565b610bed83838360405180602001604052806000815250611063565b505050565b610bfa6122e5565b6040518060600160405280600a8152602001601e81526020016064815250905090565b6000806002600084815260200190815260200160002060009054906101000a900473ffffffffffffffffffffffffffffffffffffffff169050600073ffffffffffffffffffffffffffffffffffffffff168173ffffffffffffffffffffffffffffffffffffffff161415610cc6576040517f08c379a0000000000000000000000000000000000000000000000000000000008152600401610cbd90612ec7565b60405180910390fd5b80915050919050565b6000600954905090565b60008073ffffffffffffffffffffffffffffffffffffffff168273ffffffffffffffffffffffffffffffffffffffff161415610d4a576040517f08c379a0000000000000000000000000000000000000000000000000000000008152600401610d4190612e27565b60405180910390fd5b600360008373ffffffffffffffffffffffffffffffffffffffff1673ffffffffffffffffffffffffffffffffffffffff168152602001908152602001600020549050919050565b610d99611901565b610da3600061197f565b565b6000600b54905090565b6000600b54341015610ded576040517f3d78438800000000000000000000000000000000000000000000000000000000815260040160405180910390fd5b7f000000000000000000000000000000000000000000000000000000000000000073ffffffffffffffffffffffffffffffffffffffff16635d3b1d307f00000000000000000000000000000000000000000000000000000000000000007f000000000000000000000000000000000000000000000000000000000000000060037f000000000000000000000000000000000000000000000000000000000000000060016040518663ffffffff1660e01b8152600401610eb0959493929190612cae565b602060405180830381600087803b158015610eca57600080fd5b505af1158015610ede573d6000803e3d6000fd5b505050506040513d601f19601f82011682018060405250810190610f029190612780565b9050336008600083815260200190815260200160002060006101000a81548173ffffffffffffffffffffffffffffffffffffffff021916908373ffffffffffffffffffffffffffffffffffffffff160217905550807f4e1c2f1eae56e29ec039a2b882eec626e6c420ed5a5b93a203c8b8b695e911b133604051610f869190612be8565b60405180910390a290565b6000600760009054906101000a900473ffffffffffffffffffffffffffffffffffffffff16905090565b606060018054610fca90613211565b80601f0160208091040260200160405190810160405280929190818152602001828054610ff690613211565b80156110435780601f1061101857610100808354040283529160200191611043565b820191906000526020600020905b81548152906001019060200180831161102657829003601f168201915b5050505050905090565b61105f6110586113a5565b8383611a45565b5050565b61107461106e6113a5565b83611605565b6110b3576040517f08c379a00000000000000000000000000000000000000000000000000000000081526004016110aa90612f07565b60405180910390fd5b6110bf84848484611bb2565b50505050565b60606110d08261135a565b60006006600084815260200190815260200160002080546110f090613211565b80601f016020809104026020016040519081016040528092919081815260200182805461111c90613211565b80156111695780601f1061113e57610100808354040283529160200191611169565b820191906000526020600020905b81548152906001019060200180831161114c57829003601f168201915b50505050509050600061117a611c0e565b90506000815114156111905781925050506111d3565b6000825111156111c55780826040516020016111ad929190612baf565b604051602081830303815290604052925050506111d3565b6111ce84611c25565b925050505b919050565b6000600560008473ffffffffffffffffffffffffffffffffffffffff1673ffffffffffffffffffffffffffffffffffffffff16815260200190815260200160002060008373ffffffffffffffffffffffffffffffffffffffff1673ffffffffffffffffffffffffffffffffffffffff16815260200190815260200160002060009054906101000a900460ff16905092915050565b611274611901565b600073ffffffffffffffffffffffffffffffffffffffff168173ffffffffffffffffffffffffffffffffffffffff1614156112e4576040517f08c379a00000000000000000000000000000000000000000000000000000000081526004016112db90612d87565b60405180910390fd5b6112ed8161197f565b50565b60007f01ffc9a7000000000000000000000000000000000000000000000000000000007bffffffffffffffffffffffffffffffffffffffffffffffffffffffff1916827bffffffffffffffffffffffffffffffffffffffffffffffffffffffff1916149050919050565b61136381611c8d565b6113a2576040517f08c379a000000000000000000000000000000000000000000000000000000000815260040161139990612ec7565b60405180910390fd5b50565b600033905090565b816004600083815260200190815260200160002060006101000a81548173ffffffffffffffffffffffffffffffffffffffff021916908373ffffffffffffffffffffffffffffffffffffffff160217905550808273ffffffffffffffffffffffffffffffffffffffff1661142083610c1d565b73ffffffffffffffffffffffffffffffffffffffff167f8c5be1e5ebec7d5bd14f71427d1e84f3dd0314c0f7b2291e5b200ac8c7c3b92560405160405180910390a45050565b60006008600084815260200190815260200160002060009054906101000a900473ffffffffffffffffffffffffffffffffffffffff1690506000600954905060006064846000815181106114bd576114bc6133aa565b5b60200260200101516114cf91906132bd565b905060006114dc82610a47565b90506114e88484611cf9565b6115aa83600a8360028111156115015761150061334c565b5b81548110611512576115116133aa565b5b90600052602060002001805461152790613211565b80601f016020809104026020016040519081016040528092919081815260200182805461155390613211565b80156115a05780601f10611575576101008083540402835291602001916115a0565b820191906000526020600020905b81548152906001019060200180831161158357829003601f168201915b5050505050611d17565b6001600960008282546115bd919061303f565b925050819055507fab79897476febbd649710b1bd1dc3e93a316d3dee65f65b022ab89a4b7e206b581856040516115f5929190612d1c565b60405180910390a1505050505050565b60008061161183610c1d565b90508073ffffffffffffffffffffffffffffffffffffffff168473ffffffffffffffffffffffffffffffffffffffff161480611653575061165281856111d8565b5b8061169157508373ffffffffffffffffffffffffffffffffffffffff1661167984610719565b73ffffffffffffffffffffffffffffffffffffffff16145b91505092915050565b8273ffffffffffffffffffffffffffffffffffffffff166116ba82610c1d565b73ffffffffffffffffffffffffffffffffffffffff1614611710576040517f08c379a000000000000000000000000000000000000000000000000000000000815260040161170790612da7565b60405180910390fd5b600073ffffffffffffffffffffffffffffffffffffffff168273ffffffffffffffffffffffffffffffffffffffff161415611780576040517f08c379a000000000000000000000000000000000000000000000000000000000815260040161177790612de7565b60405180910390fd5b61178b838383611d8b565b6117966000826113ad565b6001600360008573ffffffffffffffffffffffffffffffffffffffff1673ffffffffffffffffffffffffffffffffffffffff16815260200190815260200160002060008282546117e691906130c6565b925050819055506001600360008473ffffffffffffffffffffffffffffffffffffffff1673ffffffffffffffffffffffffffffffffffffffff168152602001908152602001600020600082825461183d919061303f565b92505081905550816002600083815260200190815260200160002060006101000a81548173ffffffffffffffffffffffffffffffffffffffff021916908373ffffffffffffffffffffffffffffffffffffffff160217905550808273ffffffffffffffffffffffffffffffffffffffff168473ffffffffffffffffffffffffffffffffffffffff167fddf252ad1be2c89b69c2b068fc378daa952ba7f163c4a11628f55a4df523b3ef60405160405180910390a46118fc838383611d90565b505050565b6119096113a5565b73ffffffffffffffffffffffffffffffffffffffff16611927610f91565b73ffffffffffffffffffffffffffffffffffffffff161461197d576040517f08c379a000000000000000000000000000000000000000000000000000000000815260040161197490612ea7565b60405180910390fd5b565b6000600760009054906101000a900473ffffffffffffffffffffffffffffffffffffffff16905081600760006101000a81548173ffffffffffffffffffffffffffffffffffffffff021916908373ffffffffffffffffffffffffffffffffffffffff1602179055508173ffffffffffffffffffffffffffffffffffffffff168173ffffffffffffffffffffffffffffffffffffffff167f8be0079c531659141344cd1fd0a4f28419497f9722a3daafe3b4186f6b6457e060405160405180910390a35050565b8173ffffffffffffffffffffffffffffffffffffffff168373ffffffffffffffffffffffffffffffffffffffff161415611ab4576040517f08c379a0000000000000000000000000000000000000000000000000000000008152600401611aab90612e07565b60405180910390fd5b80600560008573ffffffffffffffffffffffffffffffffffffffff1673ffffffffffffffffffffffffffffffffffffffff16815260200190815260200160002060008473ffffffffffffffffffffffffffffffffffffffff1673ffffffffffffffffffffffffffffffffffffffff16815260200190815260200160002060006101000a81548160ff0219169083151502179055508173ffffffffffffffffffffffffffffffffffffffff168373ffffffffffffffffffffffffffffffffffffffff167f17307eab39ab6107e8899845ad3d59bd9653f200f220920489ca2b5937696c3183604051611ba59190612c93565b60405180910390a3505050565b611bbd84848461169a565b611bc984848484611d95565b611c08576040517f08c379a0000000000000000000000000000000000000000000000000000000008152600401611bff90612d67565b60405180910390fd5b50505050565b606060405180602001604052806000815250905090565b6060611c308261135a565b6000611c3a611c0e565b90506000815111611c5a5760405180602001604052806000815250611c85565b80611c6484611f2c565b604051602001611c75929190612baf565b6040516020818303038152906040525b915050919050565b60008073ffffffffffffffffffffffffffffffffffffffff166002600084815260200190815260200160002060009054906101000a900473ffffffffffffffffffffffffffffffffffffffff1673ffffffffffffffffffffffffffffffffffffffff1614159050919050565b611d1382826040518060200160405280600081525061208d565b5050565b611d2082611c8d565b611d5f576040517f08c379a0000000000000000000000000000000000000000000000000000000008152600401611d5690612e47565b60405180910390fd5b80600660008481526020019081526020016000209080519060200190611d86929190612307565b505050565b505050565b505050565b6000611db68473ffffffffffffffffffffffffffffffffffffffff166120e8565b15611f1f578373ffffffffffffffffffffffffffffffffffffffff1663150b7a02611ddf6113a5565b8786866040518563ffffffff1660e01b8152600401611e019493929190612c2c565b602060405180830381600087803b158015611e1b57600080fd5b505af1925050508015611e4c57506040513d601f19601f82011682018060405250810190611e499190612726565b60015b611ecf573d8060008114611e7c576040519150601f19603f3d011682016040523d82523d6000602084013e611e81565b606091505b50600081511415611ec7576040517f08c379a0000000000000000000000000000000000000000000000000000000008152600401611ebe90612d67565b60405180910390fd5b805181602001fd5b63150b7a0260e01b7bffffffffffffffffffffffffffffffffffffffffffffffffffffffff1916817bffffffffffffffffffffffffffffffffffffffffffffffffffffffff191614915050611f24565b600190505b949350505050565b60606000821415611f74576040518060400160405280600181526020017f30000000000000000000000000000000000000000000000000000000000000008152509050612088565b600082905060005b60008214611fa6578080611f8f90613274565b915050600a82611f9f9190613095565b9150611f7c565b60008167ffffffffffffffff811115611fc257611fc16133d9565b5b6040519080825280601f01601f191660200182016040528015611ff45781602001600182028036833780820191505090505b5090505b600085146120815760018261200d91906130c6565b9150600a8561201c91906132bd565b6030612028919061303f565b60f81b81838151811061203e5761203d6133aa565b5b60200101907effffffffffffffffffffffffffffffffffffffffffffffffffffffffffffff1916908160001a905350600a8561207a9190613095565b9450611ff8565b8093505050505b919050565b612097838361210b565b6120a46000848484611d95565b6120e3576040517f08c379a00000000000000000000000000000000000000000000000000000000081526004016120da90612d67565b60405180910390fd5b505050565b6000808273ffffffffffffffffffffffffffffffffffffffff163b119050919050565b600073ffffffffffffffffffffffffffffffffffffffff168273ffffffffffffffffffffffffffffffffffffffff16141561217b576040517f08c379a000000000000000000000000000000000000000000000000000000000815260040161217290612e87565b60405180910390fd5b61218481611c8d565b156121c4576040517f08c379a00000000000000000000000000000000000000000000000000000000081526004016121bb90612dc7565b60405180910390fd5b6121d060008383611d8b565b6001600360008473ffffffffffffffffffffffffffffffffffffffff1673ffffffffffffffffffffffffffffffffffffffff1681526020019081526020016000206000828254612220919061303f565b92505081905550816002600083815260200190815260200160002060006101000a81548173ffffffffffffffffffffffffffffffffffffffff021916908373ffffffffffffffffffffffffffffffffffffffff160217905550808273ffffffffffffffffffffffffffffffffffffffff16600073ffffffffffffffffffffffffffffffffffffffff167fddf252ad1be2c89b69c2b068fc378daa952ba7f163c4a11628f55a4df523b3ef60405160405180910390a46122e160008383611d90565b5050565b6040518060600160405280600390602082028036833780820191505090505090565b82805461231390613211565b90600052602060002090601f016020900481019282612335576000855561237c565b82601f1061234e57805160ff191683800117855561237c565b8280016001018555821561237c579182015b8281111561237b578251825591602001919060010190612360565b5b509050612389919061238d565b5090565b5b808211156123a657600081600090555060010161238e565b5090565b60006123bd6123b884612f67565b612f42565b905080838252602082019050828560208602820111156123e0576123df61340d565b5b60005b8581101561241057816123f6888261250c565b8452602084019350602083019250506001810190506123e3565b5050509392505050565b600061242d61242884612f93565b612f42565b90508281526020810184848401111561244957612448613412565b5b6124548482856131cf565b509392505050565b60008135905061246b816137dd565b92915050565b600082601f83011261248657612485613408565b5b81356124968482602086016123aa565b91505092915050565b6000813590506124ae816137f4565b92915050565b6000813590506124c38161380b565b92915050565b6000815190506124d88161380b565b92915050565b600082601f8301126124f3576124f2613408565b5b813561250384826020860161241a565b91505092915050565b60008135905061251b81613822565b92915050565b60008151905061253081613822565b92915050565b60006020828403121561254c5761254b61341c565b5b600061255a8482850161245c565b91505092915050565b6000806040838503121561257a5761257961341c565b5b60006125888582860161245c565b92505060206125998582860161245c565b9150509250929050565b6000806000606084860312156125bc576125bb61341c565b5b60006125ca8682870161245c565b93505060206125db8682870161245c565b92505060406125ec8682870161250c565b9150509250925092565b600080600080608085870312156126105761260f61341c565b5b600061261e8782880161245c565b945050602061262f8782880161245c565b93505060406126408782880161250c565b925050606085013567ffffffffffffffff81111561266157612660613417565b5b61266d878288016124de565b91505092959194509250565b600080604083850312156126905761268f61341c565b5b600061269e8582860161245c565b92505060206126af8582860161249f565b9150509250929050565b600080604083850312156126d0576126cf61341c565b5b60006126de8582860161245c565b92505060206126ef8582860161250c565b9150509250929050565b60006020828403121561270f5761270e61341c565b5b600061271d848285016124b4565b91505092915050565b60006020828403121561273c5761273b61341c565b5b600061274a848285016124c9565b91505092915050565b6000602082840312156127695761276861341c565b5b60006127778482850161250c565b91505092915050565b6000602082840312156127965761279561341c565b5b60006127a484828501612521565b91505092915050565b600080604083850312156127c4576127c361341c565b5b60006127d28582860161250c565b925050602083013567ffffffffffffffff8111156127f3576127f2613417565b5b6127ff85828601612471565b9150509250929050565b60006128158383612b73565b60208301905092915050565b61282a816130fa565b82525050565b61283981612fce565b6128438184612ffc565b925061284e82612fc4565b8060005b8381101561287f5781516128668782612809565b965061287183612fef565b925050600181019050612852565b505050505050565b6128908161310c565b82525050565b61289f81613118565b82525050565b60006128b082612fd9565b6128ba8185613007565b93506128ca8185602086016131de565b6128d381613421565b840191505092915050565b6128e7816131bd565b82525050565b60006128f882612fe4565b6129028185613023565b93506129128185602086016131de565b61291b81613421565b840191505092915050565b600061293182612fe4565b61293b8185613034565b935061294b8185602086016131de565b80840191505092915050565b6000612964603283613023565b915061296f82613432565b604082019050919050565b6000612987602683613023565b915061299282613481565b604082019050919050565b60006129aa602583613023565b91506129b5826134d0565b604082019050919050565b60006129cd601c83613023565b91506129d88261351f565b602082019050919050565b60006129f0602483613023565b91506129fb82613548565b604082019050919050565b6000612a13601983613023565b9150612a1e82613597565b602082019050919050565b6000612a36602983613023565b9150612a41826135c0565b604082019050919050565b6000612a59602e83613023565b9150612a648261360f565b604082019050919050565b6000612a7c603e83613023565b9150612a878261365e565b604082019050919050565b6000612a9f602083613023565b9150612aaa826136ad565b602082019050919050565b6000612ac2602083613023565b9150612acd826136d6565b602082019050919050565b6000612ae5601883613023565b9150612af0826136ff565b602082019050919050565b6000612b08602183613023565b9150612b1382613728565b604082019050919050565b6000612b2b600083613018565b9150612b3682613777565b600082019050919050565b6000612b4e602e83613023565b9150612b598261377a565b604082019050919050565b612b6d81613161565b82525050565b612b7c8161318f565b82525050565b612b8b8161318f565b82525050565b612b9a81613199565b82525050565b612ba9816131a9565b82525050565b6000612bbb8285612926565b9150612bc78284612926565b91508190509392505050565b6000612bde82612b1e565b9150819050919050565b6000602082019050612bfd6000830184612821565b92915050565b6000604082019050612c186000830185612821565b612c256020830184612821565b9392505050565b6000608082019050612c416000830187612821565b612c4e6020830186612821565b612c5b6040830185612b82565b8181036060830152612c6d81846128a5565b905095945050505050565b6000606082019050612c8d6000830184612830565b92915050565b6000602082019050612ca86000830184612887565b92915050565b600060a082019050612cc36000830188612896565b612cd06020830187612ba0565b612cdd6040830186612b64565b612cea6060830185612b91565b612cf76080830184612b91565b9695505050505050565b6000602082019050612d1660008301846128de565b92915050565b6000604082019050612d3160008301856128de565b612d3e6020830184612821565b9392505050565b60006020820190508181036000830152612d5f81846128ed565b905092915050565b60006020820190508181036000830152612d8081612957565b9050919050565b60006020820190508181036000830152612da08161297a565b9050919050565b60006020820190508181036000830152612dc08161299d565b9050919050565b60006020820190508181036000830152612de0816129c0565b9050919050565b60006020820190508181036000830152612e00816129e3565b9050919050565b60006020820190508181036000830152612e2081612a06565b9050919050565b60006020820190508181036000830152612e4081612a29565b9050919050565b60006020820190508181036000830152612e6081612a4c565b9050919050565b60006020820190508181036000830152612e8081612a6f565b9050919050565b60006020820190508181036000830152612ea081612a92565b9050919050565b60006020820190508181036000830152612ec081612ab5565b9050919050565b60006020820190508181036000830152612ee081612ad8565b9050919050565b60006020820190508181036000830152612f0081612afb565b9050919050565b60006020820190508181036000830152612f2081612b41565b9050919050565b6000602082019050612f3c6000830184612b82565b92915050565b6000612f4c612f5d565b9050612f588282613243565b919050565b6000604051905090565b600067ffffffffffffffff821115612f8257612f816133d9565b5b602082029050602081019050919050565b600067ffffffffffffffff821115612fae57612fad6133d9565b5b612fb782613421565b9050602081019050919050565b6000819050919050565b600060039050919050565b600081519050919050565b600081519050919050565b6000602082019050919050565b600081905092915050565b600082825260208201905092915050565b600081905092915050565b600082825260208201905092915050565b600081905092915050565b600061304a8261318f565b91506130558361318f565b9250827fffffffffffffffffffffffffffffffffffffffffffffffffffffffffffffffff0382111561308a576130896132ee565b5b828201905092915050565b60006130a08261318f565b91506130ab8361318f565b9250826130bb576130ba61331d565b5b828204905092915050565b60006130d18261318f565b91506130dc8361318f565b9250828210156130ef576130ee6132ee565b5b828203905092915050565b60006131058261316f565b9050919050565b60008115159050919050565b6000819050919050565b60007fffffffff0000000000000000000000000000000000000000000000000000000082169050919050565b600081905061315c826137c9565b919050565b600061ffff82169050919050565b600073ffffffffffffffffffffffffffffffffffffffff82169050919050565b6000819050919050565b600063ffffffff82169050919050565b600067ffffffffffffffff82169050919050565b60006131c88261314e565b9050919050565b82818337600083830152505050565b60005b838110156131fc5780820151818401526020810190506131e1565b8381111561320b576000848401525b50505050565b6000600282049050600182168061322957607f821691505b6020821081141561323d5761323c61337b565b5b50919050565b61324c82613421565b810181811067ffffffffffffffff8211171561326b5761326a6133d9565b5b80604052505050565b600061327f8261318f565b91507fffffffffffffffffffffffffffffffffffffffffffffffffffffffffffffffff8214156132b2576132b16132ee565b5b600182019050919050565b60006132c88261318f565b91506132d38361318f565b9250826132e3576132e261331d565b5b828206905092915050565b7f4e487b7100000000000000000000000000000000000000000000000000000000600052601160045260246000fd5b7f4e487b7100000000000000000000000000000000000000000000000000000000600052601260045260246000fd5b7f4e487b7100000000000000000000000000000000000000000000000000000000600052602160045260246000fd5b7f4e487b7100000000000000000000000000000000000000000000000000000000600052602260045260246000fd5b7f4e487b7100000000000000000000000000000000000000000000000000000000600052603260045260246000fd5b7f4e487b7100000000000000000000000000000000000000000000000000000000600052604160045260246000fd5b600080fd5b600080fd5b600080fd5b600080fd5b600080fd5b6000601f19601f8301169050919050565b7f4552433732313a207472616e7366657220746f206e6f6e20455243373231526560008201527f63656976657220696d706c656d656e7465720000000000000000000000000000602082015250565b7f4f776e61626c653a206e6577206f776e657220697320746865207a65726f206160008201527f6464726573730000000000000000000000000000000000000000000000000000602082015250565b7f4552433732313a207472616e736665722066726f6d20696e636f72726563742060008201527f6f776e6572000000000000000000000000000000000000000000000000000000602082015250565b7f4552433732313a20746f6b656e20616c7265616479206d696e74656400000000600082015250565b7f4552433732313a207472616e7366657220746f20746865207a65726f2061646460008201527f7265737300000000000000000000000000000000000000000000000000000000602082015250565b7f4552433732313a20617070726f766520746f2063616c6c657200000000000000600082015250565b7f4552433732313a2061646472657373207a65726f206973206e6f74206120766160008201527f6c6964206f776e65720000000000000000000000000000000000000000000000602082015250565b7f45524337323155524953746f726167653a2055524920736574206f66206e6f6e60008201527f6578697374656e7420746f6b656e000000000000000000000000000000000000602082015250565b7f4552433732313a20617070726f76652063616c6c6572206973206e6f7420746f60008201527f6b656e206f776e6572206e6f7220617070726f76656420666f7220616c6c0000602082015250565b7f4552433732313a206d696e7420746f20746865207a65726f2061646472657373600082015250565b7f4f776e61626c653a2063616c6c6572206973206e6f7420746865206f776e6572600082015250565b7f4552433732313a20696e76616c696420746f6b656e2049440000000000000000600082015250565b7f4552433732313a20617070726f76616c20746f2063757272656e74206f776e6560008201527f7200000000000000000000000000000000000000000000000000000000000000602082015250565b50565b7f4552433732313a2063616c6c6572206973206e6f7420746f6b656e206f776e6560008201527f72206e6f7220617070726f766564000000000000000000000000000000000000602082015250565b600381106137da576137d961334c565b5b50565b6137e6816130fa565b81146137f157600080fd5b50565b6137fd8161310c565b811461380857600080fd5b50565b61381481613122565b811461381f57600080fd5b50565b61382b8161318f565b811461383657600080fd5b5056fea264697066735822122027cb280f9e6666e60b30cf2562f0318fd9bba938644142eb579919bda6cc9a7764736f6c63430008070033",
  "devdoc": {
    "kind": "dev",
    "methods": {
      "approve(address,uint256)": {
        "details": "See {IERC721-approve}."
      },
      "balanceOf(address)": {
        "details": "See {IERC721-balanceOf}."
      },
      "getApproved(uint256)": {
        "details": "See {IERC721-getApproved}."
      },
      "isApprovedForAll(address,address)": {
        "details": "See {IERC721-isApprovedForAll}."
      },
      "name()": {
        "details": "See {IERC721Metadata-name}."
      },
      "owner()": {
        "details": "Returns the address of the current owner."
      },
      "ownerOf(uint256)": {
        "details": "See {IERC721-ownerOf}."
      },
      "renounceOwnership()": {
        "details": "Leaves the contract without owner. It will not be possible to call `onlyOwner` functions anymore. Can only be called by the current owner. NOTE: Renouncing ownership will leave the contract without an owner, thereby removing any functionality that is only available to the owner."
      },
      "safeTransferFrom(address,address,uint256)": {
        "details": "See {IERC721-safeTransferFrom}."
      },
      "safeTransferFrom(address,address,uint256,bytes)": {
        "details": "See {IERC721-safeTransferFrom}."
      },
      "setApprovalForAll(address,bool)": {
        "details": "See {IERC721-setApprovalForAll}."
      },
      "supportsInterface(bytes4)": {
        "details": "See {IERC165-supportsInterface}."
      },
      "symbol()": {
        "details": "See {IERC721Metadata-symbol}."
      },
      "tokenURI(uint256)": {
        "details": "See {IERC721Metadata-tokenURI}."
      },
      "transferFrom(address,address,uint256)": {
        "details": "See {IERC721-transferFrom}."
      },
      "transferOwnership(address)": {
        "details": "Transfers ownership of the contract to a new account (`newOwner`). Can only be called by the current owner."
      }
    },
    "version": 1
  },
  "userdoc": {
    "kind": "user",
    "methods": {},
    "version": 1
  },
  "storageLayout": {
    "storage": [
      {
        "astId": 1296,
        "contract": "contracts/RandomIpfsNFT.sol:RandomIpfsNFT",
        "label": "_name",
        "offset": 0,
        "slot": "0",
        "type": "t_string_storage"
      },
      {
        "astId": 1298,
        "contract": "contracts/RandomIpfsNFT.sol:RandomIpfsNFT",
        "label": "_symbol",
        "offset": 0,
        "slot": "1",
        "type": "t_string_storage"
      },
      {
        "astId": 1302,
        "contract": "contracts/RandomIpfsNFT.sol:RandomIpfsNFT",
        "label": "_owners",
        "offset": 0,
        "slot": "2",
        "type": "t_mapping(t_uint256,t_address)"
      },
      {
        "astId": 1306,
        "contract": "contracts/RandomIpfsNFT.sol:RandomIpfsNFT",
        "label": "_balances",
        "offset": 0,
        "slot": "3",
        "type": "t_mapping(t_address,t_uint256)"
      },
      {
        "astId": 1310,
        "contract": "contracts/RandomIpfsNFT.sol:RandomIpfsNFT",
        "label": "_tokenApprovals",
        "offset": 0,
        "slot": "4",
        "type": "t_mapping(t_uint256,t_address)"
      },
      {
        "astId": 1316,
        "contract": "contracts/RandomIpfsNFT.sol:RandomIpfsNFT",
        "label": "_operatorApprovals",
        "offset": 0,
        "slot": "5",
        "type": "t_mapping(t_address,t_mapping(t_address,t_bool))"
      },
      {
        "astId": 2284,
        "contract": "contracts/RandomIpfsNFT.sol:RandomIpfsNFT",
        "label": "_tokenURIs",
        "offset": 0,
        "slot": "6",
        "type": "t_mapping(t_uint256,t_string_storage)"
      },
      {
        "astId": 1165,
        "contract": "contracts/RandomIpfsNFT.sol:RandomIpfsNFT",
        "label": "_owner",
        "offset": 0,
        "slot": "7",
        "type": "t_address"
      },
      {
        "astId": 3352,
        "contract": "contracts/RandomIpfsNFT.sol:RandomIpfsNFT",
        "label": "s_requestIdToSender",
        "offset": 0,
        "slot": "8",
        "type": "t_mapping(t_uint256,t_address)"
      },
      {
        "astId": 3354,
        "contract": "contracts/RandomIpfsNFT.sol:RandomIpfsNFT",
        "label": "s_tokenCounter",
        "offset": 0,
        "slot": "9",
        "type": "t_uint256"
      },
      {
        "astId": 3360,
        "contract": "contracts/RandomIpfsNFT.sol:RandomIpfsNFT",
        "label": "s_dogTokenUris",
        "offset": 0,
        "slot": "10",
        "type": "t_array(t_string_storage)dyn_storage"
      },
      {
        "astId": 3362,
        "contract": "contracts/RandomIpfsNFT.sol:RandomIpfsNFT",
        "label": "i_mintFee",
        "offset": 0,
        "slot": "11",
        "type": "t_uint256"
      }
    ],
    "types": {
      "t_address": {
        "encoding": "inplace",
        "label": "address",
        "numberOfBytes": "20"
      },
      "t_array(t_string_storage)dyn_storage": {
        "base": "t_string_storage",
        "encoding": "dynamic_array",
        "label": "string[]",
        "numberOfBytes": "32"
      },
      "t_bool": {
        "encoding": "inplace",
        "label": "bool",
        "numberOfBytes": "1"
      },
      "t_mapping(t_address,t_bool)": {
        "encoding": "mapping",
        "key": "t_address",
        "label": "mapping(address => bool)",
        "numberOfBytes": "32",
        "value": "t_bool"
      },
      "t_mapping(t_address,t_mapping(t_address,t_bool))": {
        "encoding": "mapping",
        "key": "t_address",
        "label": "mapping(address => mapping(address => bool))",
        "numberOfBytes": "32",
        "value": "t_mapping(t_address,t_bool)"
      },
      "t_mapping(t_address,t_uint256)": {
        "encoding": "mapping",
        "key": "t_address",
        "label": "mapping(address => uint256)",
        "numberOfBytes": "32",
        "value": "t_uint256"
      },
      "t_mapping(t_uint256,t_address)": {
        "encoding": "mapping",
        "key": "t_uint256",
        "label": "mapping(uint256 => address)",
        "numberOfBytes": "32",
        "value": "t_address"
      },
      "t_mapping(t_uint256,t_string_storage)": {
        "encoding": "mapping",
        "key": "t_uint256",
        "label": "mapping(uint256 => string)",
        "numberOfBytes": "32",
        "value": "t_string_storage"
      },
      "t_string_storage": {
        "encoding": "bytes",
        "label": "string",
        "numberOfBytes": "32"
      },
      "t_uint256": {
        "encoding": "inplace",
        "label": "uint256",
        "numberOfBytes": "32"
      }
    }
  }
}